{"abi":[{"type":"function","name":"addCollectionStory","inputs":[{"name":"creatorName","type":"string","internalType":"string"},{"name":"story","type":"string","internalType":"string"}],"outputs":[],"stateMutability":"nonpayable"},{"type":"function","name":"addCreatorStory","inputs":[{"name":"tokenId","type":"uint256","internalType":"uint256"},{"name":"","type":"string","internalType":"string"},{"name":"story","type":"string","internalType":"string"}],"outputs":[],"stateMutability":"nonpayable"},{"type":"function","name":"addStory","inputs":[{"name":"tokenId","type":"uint256","internalType":"uint256"},{"name":"","type":"string","internalType":"string"},{"name":"story","type":"string","internalType":"string"}],"outputs":[],"stateMutability":"nonpayable"},{"type":"function","name":"approve","inputs":[{"name":"to","type":"address","internalType":"address"},{"name":"tokenId","type":"uint256","internalType":"uint256"}],"outputs":[],"stateMutability":"nonpayable"},{"type":"function","name":"balanceOf","inputs":[{"name":"owner","type":"address","internalType":"address"}],"outputs":[{"name":"","type":"uint256","internalType":"uint256"}],"stateMutability":"view"},{"type":"function","name":"baseURI","inputs":[],"outputs":[{"name":"","type":"string","internalType":"string"}],"stateMutability":"view"},{"type":"function","name":"batchBurn","inputs":[{"name":"tokenIds","type":"uint256[]","internalType":"uint256[]"}],"outputs":[],"stateMutability":"nonpayable"},{"type":"function","name":"burn","inputs":[{"name":"tokenId","type":"uint256","internalType":"uint256"}],"outputs":[],"stateMutability":"nonpayable"},{"type":"function","name":"burnAndMint","inputs":[{"name":"tokenIds","type":"uint256[]","internalType":"uint256[]"},{"name":"_tokenId","type":"uint256","internalType":"uint256"},{"name":"mintType","type":"string","internalType":"string"},{"name":"tokenPrice","type":"uint256","internalType":"uint256"},{"name":"burnsToUse","type":"uint256","internalType":"uint256"},{"name":"redeemableTrueURI","type":"string","internalType":"string"},{"name":"redeemableFalseURI","type":"string","internalType":"string"},{"name":"redeemableDefaultIndex","type":"uint256","internalType":"uint256"},{"name":"signature","type":"bytes","internalType":"bytes"}],"outputs":[],"stateMutability":"payable"},{"type":"function","name":"burnCount","inputs":[{"name":"","type":"address","internalType":"address"}],"outputs":[{"name":"","type":"uint256","internalType":"uint256"}],"stateMutability":"view"},{"type":"function","name":"claimable","inputs":[{"name":"_tokenId","type":"uint256","internalType":"uint256"},{"name":"tokenPrice","type":"uint256","internalType":"uint256"},{"name":"redeemableTrueURI","type":"string","internalType":"string"},{"name":"redeemableFalseURI","type":"string","internalType":"string"},{"name":"redeemableDefaultIndex","type":"uint256","internalType":"uint256"},{"name":"signature","type":"bytes","internalType":"bytes"}],"outputs":[],"stateMutability":"payable"},{"type":"function","name":"currentAuthoritySigner","inputs":[],"outputs":[{"name":"","type":"address","internalType":"address"}],"stateMutability":"view"},{"type":"function","name":"getApproved","inputs":[{"name":"tokenId","type":"uint256","internalType":"uint256"}],"outputs":[{"name":"","type":"address","internalType":"address"}],"stateMutability":"view"},{"type":"function","name":"hasPinnedTokenURI","inputs":[{"name":"tokenId","type":"uint256","internalType":"uint256"}],"outputs":[{"name":"pinned","type":"bool","internalType":"bool"}],"stateMutability":"view"},{"type":"function","name":"initialize","inputs":[{"name":"contractOwner","type":"address","internalType":"address"},{"name":"contractAuthoritySigner","type":"address","internalType":"address"}],"outputs":[],"stateMutability":"nonpayable"},{"type":"function","name":"isApprovedForAll","inputs":[{"name":"owner","type":"address","internalType":"address"},{"name":"operator","type":"address","internalType":"address"}],"outputs":[{"name":"","type":"bool","internalType":"bool"}],"stateMutability":"view"},{"type":"function","name":"mint","inputs":[{"name":"_tokenId","type":"uint256","internalType":"uint256"},{"name":"mintType","type":"string","internalType":"string"},{"name":"tokenPrice","type":"uint256","internalType":"uint256"},{"name":"redeemableTrueURI","type":"string","internalType":"string"},{"name":"redeemableFalseURI","type":"string","internalType":"string"},{"name":"redeemableDefaultIndex","type":"uint256","internalType":"uint256"},{"name":"signature","type":"bytes","internalType":"bytes"}],"outputs":[],"stateMutability":"payable"},{"type":"function","name":"mintWithBurns","inputs":[{"name":"_tokenId","type":"uint256","internalType":"uint256"},{"name":"burnedTokenIds","type":"uint256[]","internalType":"uint256[]"},{"name":"mintType","type":"string","internalType":"string"},{"name":"tokenPrice","type":"uint256","internalType":"uint256"},{"name":"burnsToUse","type":"uint256","internalType":"uint256"},{"name":"redeemableTrueURI","type":"string","internalType":"string"},{"name":"redeemableFalseURI","type":"string","internalType":"string"},{"name":"redeemableDefaultIndex","type":"uint256","internalType":"uint256"},{"name":"signature","type":"bytes","internalType":"bytes"}],"outputs":[],"stateMutability":"payable"},{"type":"function","name":"mintWithTrade","inputs":[{"name":"_mintedTokenId","type":"uint256","internalType":"uint256"},{"name":"tradedTokenIds","type":"uint256[]","internalType":"uint256[]"},{"name":"mintType","type":"string","internalType":"string"},{"name":"tokenPrice","type":"uint256","internalType":"uint256"},{"name":"redeemableTrueURI","type":"string","internalType":"string"},{"name":"redeemableFalseURI","type":"string","internalType":"string"},{"name":"redeemableDefaultIndex","type":"uint256","internalType":"uint256"},{"name":"signature","type":"bytes","internalType":"bytes"}],"outputs":[],"stateMutability":"payable"},{"type":"function","name":"name","inputs":[],"outputs":[{"name":"","type":"string","internalType":"string"}],"stateMutability":"view"},{"type":"function","name":"nonces","inputs":[{"name":"owner","type":"address","internalType":"address"}],"outputs":[{"name":"","type":"uint256","internalType":"uint256"}],"stateMutability":"view"},{"type":"function","name":"owner","inputs":[],"outputs":[{"name":"","type":"address","internalType":"address"}],"stateMutability":"view"},{"type":"function","name":"ownerOf","inputs":[{"name":"tokenId","type":"uint256","internalType":"uint256"}],"outputs":[{"name":"","type":"address","internalType":"address"}],"stateMutability":"view"},{"type":"function","name":"pinRedeemableTrueTokenUri","inputs":[{"name":"tokenId","type":"uint256","internalType":"uint256"},{"name":"signature","type":"bytes","internalType":"bytes"}],"outputs":[],"stateMutability":"nonpayable"},{"type":"function","name":"pinTokenURI","inputs":[{"name":"tokenId","type":"uint256","internalType":"uint256"},{"name":"index","type":"uint256","internalType":"uint256"}],"outputs":[],"stateMutability":"nonpayable"},{"type":"function","name":"renounceOwnership","inputs":[],"outputs":[],"stateMutability":"nonpayable"},{"type":"function","name":"royaltyInfo","inputs":[{"name":"_tokenId","type":"uint256","internalType":"uint256"},{"name":"_salePrice","type":"uint256","internalType":"uint256"}],"outputs":[{"name":"receiver","type":"address","internalType":"address"},{"name":"royaltyAmount","type":"uint256","internalType":"uint256"}],"stateMutability":"view"},{"type":"function","name":"royaltyPercentage","inputs":[],"outputs":[{"name":"","type":"uint256","internalType":"uint256"}],"stateMutability":"view"},{"type":"function","name":"royaltyReceiver","inputs":[],"outputs":[{"name":"","type":"address","internalType":"address payable"}],"stateMutability":"view"},{"type":"function","name":"safeTransferFrom","inputs":[{"name":"from","type":"address","internalType":"address"},{"name":"to","type":"address","internalType":"address"},{"name":"tokenId","type":"uint256","internalType":"uint256"}],"outputs":[],"stateMutability":"nonpayable"},{"type":"function","name":"safeTransferFrom","inputs":[{"name":"from","type":"address","internalType":"address"},{"name":"to","type":"address","internalType":"address"},{"name":"tokenId","type":"uint256","internalType":"uint256"},{"name":"data","type":"bytes","internalType":"bytes"}],"outputs":[],"stateMutability":"nonpayable"},{"type":"function","name":"setApprovalForAll","inputs":[{"name":"operator","type":"address","internalType":"address"},{"name":"approved","type":"bool","internalType":"bool"}],"outputs":[],"stateMutability":"nonpayable"},{"type":"function","name":"setBaseURI","inputs":[{"name":"newBaseURI","type":"string","internalType":"string"}],"outputs":[],"stateMutability":"nonpayable"},{"type":"function","name":"setTotalSupply","inputs":[{"name":"newTotalSupply","type":"uint256","internalType":"uint256"}],"outputs":[],"stateMutability":"nonpayable"},{"type":"function","name":"supportsInterface","inputs":[{"name":"interfaceId","type":"bytes4","internalType":"bytes4"}],"outputs":[{"name":"","type":"bool","internalType":"bool"}],"stateMutability":"view"},{"type":"function","name":"symbol","inputs":[],"outputs":[{"name":"","type":"string","internalType":"string"}],"stateMutability":"view"},{"type":"function","name":"toggleStoryVisibility","inputs":[{"name":"tokenId","type":"uint256","internalType":"uint256"},{"name":"storyId","type":"string","internalType":"string"},{"name":"visible","type":"bool","internalType":"bool"}],"outputs":[],"stateMutability":"nonpayable"},{"type":"function","name":"tokenURI","inputs":[{"name":"tokenId","type":"uint256","internalType":"uint256"}],"outputs":[{"name":"","type":"string","internalType":"string"}],"stateMutability":"view"},{"type":"function","name":"tokenURIs","inputs":[{"name":"tokenId","type":"uint256","internalType":"uint256"}],"outputs":[{"name":"index","type":"uint256","internalType":"uint256"},{"name":"uris","type":"string[]","internalType":"string[]"},{"name":"pinned","type":"bool","internalType":"bool"}],"stateMutability":"view"},{"type":"function","name":"totalSupply","inputs":[],"outputs":[{"name":"","type":"uint256","internalType":"uint256"}],"stateMutability":"view"},{"type":"function","name":"transferFrom","inputs":[{"name":"from","type":"address","internalType":"address"},{"name":"to","type":"address","internalType":"address"},{"name":"tokenId","type":"uint256","internalType":"uint256"}],"outputs":[],"stateMutability":"nonpayable"},{"type":"function","name":"transferOwnership","inputs":[{"name":"newOwner","type":"address","internalType":"address"}],"outputs":[],"stateMutability":"nonpayable"},{"type":"function","name":"triggerMetadataUpdate","inputs":[{"name":"_tokenId","type":"uint256","internalType":"uint256"}],"outputs":[],"stateMutability":"nonpayable"},{"type":"function","name":"unpinTokenURI","inputs":[{"name":"tokenId","type":"uint256","internalType":"uint256"}],"outputs":[],"stateMutability":"pure"},{"type":"function","name":"updateAuthoritySigner","inputs":[{"name":"newAuthoritySigner","type":"address","internalType":"address"}],"outputs":[],"stateMutability":"nonpayable"},{"type":"function","name":"updateMetadata","inputs":[{"name":"_tokenId","type":"uint256","internalType":"uint256"},{"name":"_newMetadataURI","type":"string","internalType":"string"}],"outputs":[],"stateMutability":"nonpayable"},{"type":"function","name":"updateOwner","inputs":[{"name":"newOwner","type":"address","internalType":"address"}],"outputs":[],"stateMutability":"nonpayable"},{"type":"function","name":"updateRoyalties","inputs":[{"name":"newReceiver","type":"address","internalType":"address payable"},{"name":"newPercentage","type":"uint256","internalType":"uint256"}],"outputs":[],"stateMutability":"nonpayable"},{"type":"function","name":"withdraw","inputs":[],"outputs":[],"stateMutability":"nonpayable"},{"type":"event","name":"Approval","inputs":[{"name":"owner","type":"address","indexed":true,"internalType":"address"},{"name":"approved","type":"address","indexed":true,"internalType":"address"},{"name":"tokenId","type":"uint256","indexed":true,"internalType":"uint256"}],"anonymous":false},{"type":"event","name":"ApprovalForAll","inputs":[{"name":"owner","type":"address","indexed":true,"internalType":"address"},{"name":"operator","type":"address","indexed":true,"internalType":"address"},{"name":"approved","type":"bool","indexed":false,"internalType":"bool"}],"anonymous":false},{"type":"event","name":"BatchMetadataUpdate","inputs":[{"name":"_fromTokenId","type":"uint256","indexed":false,"internalType":"uint256"},{"name":"_toTokenId","type":"uint256","indexed":false,"internalType":"uint256"}],"anonymous":false},{"type":"event","name":"Burned","inputs":[{"name":"tokenId","type":"uint256","indexed":false,"internalType":"uint256"}],"anonymous":false},{"type":"event","name":"Claimed","inputs":[{"name":"tokenId","type":"uint256","indexed":false,"internalType":"uint256"}],"anonymous":false},{"type":"event","name":"CollectionStory","inputs":[{"name":"creatorAddress","type":"address","indexed":true,"internalType":"address"},{"name":"creatorName","type":"string","indexed":false,"internalType":"string"},{"name":"story","type":"string","indexed":false,"internalType":"string"}],"anonymous":false},{"type":"event","name":"CreatorStory","inputs":[{"name":"tokenId","type":"uint256","indexed":true,"internalType":"uint256"},{"name":"creatorAddress","type":"address","indexed":true,"internalType":"address"},{"name":"creatorName","type":"string","indexed":false,"internalType":"string"},{"name":"story","type":"string","indexed":false,"internalType":"string"}],"anonymous":false},{"type":"event","name":"Initialized","inputs":[{"name":"version","type":"uint64","indexed":false,"internalType":"uint64"}],"anonymous":false},{"type":"event","name":"MetadataUpdate","inputs":[{"name":"_tokenId","type":"uint256","indexed":false,"internalType":"uint256"}],"anonymous":false},{"type":"event","name":"Minted","inputs":[{"name":"tokenId","type":"uint256","indexed":false,"internalType":"uint256"}],"anonymous":false},{"type":"event","name":"MintedByBurning","inputs":[{"name":"tokenId","type":"uint256","indexed":false,"internalType":"uint256"},{"name":"burnedTokenIds","type":"uint256[]","indexed":false,"internalType":"uint256[]"}],"anonymous":false},{"type":"event","name":"MintedByTrading","inputs":[{"name":"newTokenId","type":"uint256","indexed":false,"internalType":"uint256"},{"name":"tradedTokenIds","type":"uint256[]","indexed":false,"internalType":"uint256[]"}],"anonymous":false},{"type":"event","name":"OwnershipTransferred","inputs":[{"name":"previousOwner","type":"address","indexed":true,"internalType":"address"},{"name":"newOwner","type":"address","indexed":true,"internalType":"address"}],"anonymous":false},{"type":"event","name":"RoyaltiesUpdated","inputs":[{"name":"receiver","type":"address","indexed":true,"internalType":"address"},{"name":"newPercentage","type":"uint256","indexed":false,"internalType":"uint256"}],"anonymous":false},{"type":"event","name":"Story","inputs":[{"name":"tokenId","type":"uint256","indexed":true,"internalType":"uint256"},{"name":"collectorAddress","type":"address","indexed":true,"internalType":"address"},{"name":"collectorName","type":"string","indexed":false,"internalType":"string"},{"name":"story","type":"string","indexed":false,"internalType":"string"}],"anonymous":false},{"type":"event","name":"ToggleStoryVisibility","inputs":[{"name":"tokenId","type":"uint256","indexed":false,"internalType":"uint256"},{"name":"storyId","type":"string","indexed":false,"internalType":"string"},{"name":"visible","type":"bool","indexed":false,"internalType":"bool"}],"anonymous":false},{"type":"event","name":"TokenUriPinned","inputs":[{"name":"tokenId","type":"uint256","indexed":true,"internalType":"uint256"},{"name":"index","type":"uint256","indexed":true,"internalType":"uint256"}],"anonymous":false},{"type":"event","name":"TokenUriUnpinned","inputs":[{"name":"tokenId","type":"uint256","indexed":true,"internalType":"uint256"}],"anonymous":false},{"type":"event","name":"Transfer","inputs":[{"name":"from","type":"address","indexed":true,"internalType":"address"},{"name":"to","type":"address","indexed":true,"internalType":"address"},{"name":"tokenId","type":"uint256","indexed":true,"internalType":"uint256"}],"anonymous":false},{"type":"error","name":"ECDSAInvalidSignature","inputs":[]},{"type":"error","name":"ECDSAInvalidSignatureLength","inputs":[{"name":"length","type":"uint256","internalType":"uint256"}]},{"type":"error","name":"ECDSAInvalidSignatureS","inputs":[{"name":"s","type":"bytes32","internalType":"bytes32"}]},{"type":"error","name":"ERC721IncorrectOwner","inputs":[{"name":"sender","type":"address","internalType":"address"},{"name":"tokenId","type":"uint256","internalType":"uint256"},{"name":"owner","type":"address","internalType":"address"}]},{"type":"error","name":"ERC721InsufficientApproval","inputs":[{"name":"operator","type":"address","internalType":"address"},{"name":"tokenId","type":"uint256","internalType":"uint256"}]},{"type":"error","name":"ERC721InvalidApprover","inputs":[{"name":"approver","type":"address","internalType":"address"}]},{"type":"error","name":"ERC721InvalidOperator","inputs":[{"name":"operator","type":"address","internalType":"address"}]},{"type":"error","name":"ERC721InvalidOwner","inputs":[{"name":"owner","type":"address","internalType":"address"}]},{"type":"error","name":"ERC721InvalidReceiver","inputs":[{"name":"receiver","type":"address","internalType":"address"}]},{"type":"error","name":"ERC721InvalidSender","inputs":[{"name":"sender","type":"address","internalType":"address"}]},{"type":"error","name":"ERC721NonexistentToken","inputs":[{"name":"tokenId","type":"uint256","internalType":"uint256"}]},{"type":"error","name":"InvalidAccountNonce","inputs":[{"name":"account","type":"address","internalType":"address"},{"name":"currentNonce","type":"uint256","internalType":"uint256"}]},{"type":"error","name":"InvalidInitialization","inputs":[]},{"type":"error","name":"NotInitializing","inputs":[]},{"type":"error","name":"OwnableInvalidOwner","inputs":[{"name":"owner","type":"address","internalType":"address"}]},{"type":"error","name":"OwnableUnauthorizedAccount","inputs":[{"name":"account","type":"address","internalType":"address"}]},{"type":"error","name":"StringsInsufficientHexLength","inputs":[{"name":"value","type":"uint256","internalType":"uint256"},{"name":"length","type":"uint256","internalType":"uint256"}]}],"bytecode":{"object":"0x60808060405234601557613623908161001b8239f35b600080fdfe6080604052600436101561001257600080fd5b60003560e01c806301946adb1461201557806301ffc9a714611f7c57806306fdde0314611eba578063081812fc14611e6f578063095ea7b314611d7d57806315889e4314611d4357806318160ddd14611d2557806323b872dd14611d0e5780632714cfb414611b8657806329471dc214611b355780632a55205a14611adc5780632f38856014611aa75780633ccfd60b146119e757806342842e0e146119bd57806342966c68146119a1578063455086e114611970578063485cc9551461150057806352dbd6da146114ed57806353c8388e1461145b57806355f804b31461134957806356000f77146112c85780635b23e3ce146112435780636352211e146112135780636c0360eb146111f75780636c2f5acd146111335780636c8b703f1461106b57806370a0823114611019578063715018a614610f9d5780637de19c5f14610eb85780637ecebe0014610e5f578063880cdc3114610e0b5780638a71bb2d14610ded5780638da5cb5b14610dc457806395d89b4114610cdd5780639cd8e65e14610c1a5780639fbc871314610bf1578063a22cb46514610b55578063aa20ee7b14610b2c578063b55dea4c146109f8578063b88d4fde146109aa578063c787ce5114610718578063c87b56dd14610617578063d2b161b214610530578063dc8e92ea146104f8578063dcf5386b146103b6578063e985e9c514610368578063f2fde38b1461033d578063f7ea7a3d1461031c5763ff5e7a191461023757600080fd5b34610317576060366003190112610317576004356024356001600160401b0381116103175761026a9036906004016121f9565b9091604435801515809103610317577f25c7d8f03866b5d5c6bf6aaa9d2f4a3a75b6cccc959321f16bbfd5bb41d03a60936102f8906102bb6001600160a01b036102b3866132ce565b161515612854565b6001600160a01b036102cc85612e09565b1633148015610303575b6102df90612897565b60405194859485526060602086015260608501916128ef565b9060408301520390a1005b506004546001600160a01b031633146102d6565b600080fd5b3461031757602036600319011261031757610335612de0565b600435600955005b3461031757602036600319011261031757610366610359612058565b610361612de0565b612d58565b005b3461031757604036600319011261031757610381612058565b61039261038c61206e565b91612105565b9060018060a01b0316600052602052602060ff604060002054166040519015158152f35b60c0366003190112610317576004356044356001600160401b038111610317576103e49036906004016121b4565b906064356001600160401b038111610317576104049036906004016121b4565b906084359260a4356001600160401b038111610317576104289036906004016121b4565b906001600160a01b0361043a846132ce565b166104b4577f7a355715549cfe7c1cba26304350343fbddc4b4f72d3ce3e7c27117dd20b5cb8946020946104ad9261049d604095848484895161047d8b82612178565b6009815268636c61696d61626c6560b81b8d820152602435908c33613002565b6104a7863361316c565b856131e0565b51908152a1005b606460405162461bcd60e51b815260206004820152602060248201527f546f6b656e20616c7265616479206d696e746564206f7220636c61696d65642e6044820152fd5b34610317576020366003190112610317576004356001600160401b0381116103175761052b61036691369060040161239b565b612d2a565b610120366003190112610317576004356001600160401b0381116103175761055c90369060040161239b565b6024356044356001600160401b0381116103175761057e9036906004016121b4565b60a4356001600160401b0381116103175761059d9036906004016121b4565b60c4356001600160401b038111610317576105bc9036906004016121b4565b9061010435946001600160401b038611610317576105e16103669636906004016121b4565b946105fd6001600160a01b036105f6836132ce565b1615612a76565b61060682612d2a565b60e435946084359260643592612afb565b346103175760203660031901126103175761066e60043561064a6001600160a01b03610642836132ce565b161515612938565b61065381612fa7565b9060005260066020526106696040600020612994565b612d00565b518051156106db576106d7906106c36106856122cb565b6020604051938261069f8694518092858088019101612084565b83016106b382518093858085019101612084565b010103601f198101835282612178565b6040519182916020835260208301906120a7565b0390f35b60405162461bcd60e51b8152602060048201526015602482015274115490cdcc8c4e881b9bdd0815549248199bdd5b99605a1b6044820152606490fd5b610100366003190112610317576004356024356001600160401b0381116103175761074790369060040161239b565b6044356001600160401b038111610317576107669036906004016121b4565b916084356001600160401b038111610317576107869036906004016121b4565b60a4356001600160401b038111610317576107a59036906004016121b4565b9060c4359460e4356001600160401b038111610317576107c99036906004016121b4565b906107de6001600160a01b036105f6876132ce565b85511561096557959291908551966000975b80891061085a577f5f4275bc9f30c8b666646f89f4257a0a4892163b25cb250a5c16fe012477b2e188886108468989896108368a8484848d8b5190606435908c336130ff565b610840853361316c565b846131e0565b61085560405192839283612aba565b0390a1005b6108678989989799612d00565b5198336001600160a01b0361087b8c612e09565b1603610914576004546001600160a01b031680156108fe576001600160a01b03906108a7908c90612e26565b16806108c2578a637e27328960e01b60005260045260246000fd5b909192939495969798993382036108e35750506001019794939291906107f0565b6364283d7b60e01b6000523360045260245260445260646000fd5b633250574960e11b600052600060045260246000fd5b60405162461bcd60e51b815260206004820152602360248201527f53656e646572206d757374206f776e2074686520746f6b656e7320746f20747260448201526261646560e81b6064820152608490fd5b60405162461bcd60e51b815260206004820152601c60248201527f4e6f20746f6b656e732070726f766964656420666f72207472616465000000006044820152606490fd5b34610317576080366003190112610317576109c3612058565b6109cb61206e565b606435916001600160401b038311610317576109ee6103669336906004016121b4565b9160443591612bda565b60e0366003190112610317576004356024356001600160401b03811161031757610a269036906004016121b4565b604435916064356001600160401b03811161031757610a499036906004016121b4565b916084356001600160401b03811161031757610a699036906004016121b4565b60a4359060c4356001600160401b03811161031757610a8c9036906004016121b4565b94610aa16001600160a01b036105f6876132ce565b863410610ae7576108366020968484847f176b02bb2d12439ff7a20b59f402cca16c76f50508b13ef3166a600eb719354a9b610ade998b33613002565b604051908152a1005b60405162461bcd60e51b815260206004820152601d60248201527f4e6f7420656e6f75676820457468657220746f206d696e74204e46542e0000006044820152606490fd5b34610317576000366003190112610317576005546040516001600160a01b039091168152602090f35b3461031757604036600319011261031757610b6e612058565b60243590811515809203610317576001600160a01b0316908115610bdc57610b9533612105565b82600052602052604060002060ff1981541660ff83161790556040519081527f17307eab39ab6107e8899845ad3d59bd9653f200f220920489ca2b5937696c3160203392a3005b50630b61174360e31b60005260045260246000fd5b34610317576000366003190112610317576001546040516001600160a01b039091168152602090f35b610120366003190112610317576024356001600160401b03811161031757610c4690369060040161239b565b6044356001600160401b03811161031757610c659036906004016121b4565b60a4356001600160401b03811161031757610c849036906004016121b4565b9160c4356001600160401b03811161031757610ca49036906004016121b4565b61010435936001600160401b03851161031757610cc86103669536906004016121b4565b9360e435936084359160643591600435612afb565b346103175760003660031901126103175760405160006000805160206135ce83398151915254610d0c81612291565b8084529060018116908115610da05750600114610d34575b6106d7836106c381850382612178565b6000805160206135ce83398151915260009081527ff4bad0a69248f59680a4f2b3000328cec71a413447c96781cfe5996daa8c456e939250905b808210610d86575090915081016020016106c3610d24565b919260018160209254838588010152019101909291610d6e565b60ff191660208086019190915291151560051b840190910191506106c39050610d24565b34610317576000366003190112610317576004546040516001600160a01b039091168152602090f35b34610317576000366003190112610317576020600054604051908152f35b3461031757602036600319011261031757610e24612058565b610e2c612de0565b610e34612de0565b610e3d81612d58565b600480546001600160a01b0319166001600160a01b0392909216919091179055005b34610317576020366003190112610317576001600160a01b03610e80612058565b166000527f5ab42ced628888259c08ac98db1eb0cf702fc1501344311d8b100cd1bfe4bb006020526020604060002054604051908152f35b3461031757610ec636612226565b90610ecf612de0565b806000526006602052604060002054821015610f4e576000805160206135ae8339815191529181602092600052600783528160406000205580600052600883526040600020600160ff1982541617905560405191817fdafe56f3e547ebb1818fc8353ba53591db2528d41cbb7a35af2d9469f4490533600080a38152a1005b60405162461bcd60e51b815260206004820152602160248201527f496e646578206f7574206f6620626f756e647320666f7220746f6b656e2055526044820152604960f81b6064820152608490fd5b3461031757600036600319011261031757610fb6612de0565b7f9016d09d72d40fdae2fd8ceac6b6234c7706214fd39c1cd1e609a0528c19930080546001600160a01b031981169091556000906001600160a01b03167f8be0079c531659141344cd1fd0a4f28419497f9722a3daafe3b4186f6b6457e08280a3005b3461031757602036600319011261031757611032612058565b6001600160a01b038116156110555761104c6020916120cc565b54604051908152f35b6322718ad960e21b600052600060045260246000fd5b34610317576020366003190112610317576004356110936001600160a01b03610642836132ce565b61109c81612fa7565b81600052600660205260406000209160005260086020526110c560ff6040600020541692612994565b60405191606083019083526060602084015281518091526080830190602060808260051b8601019301916000905b82821061110857861515604087015285850386f35b90919293602080611125600193607f198a820301865288516120a7565b9601920192019092916110f3565b34610317576040366003190112610317576004356001600160a01b0381169081900361031757602435611164612de0565b61271081116111b25760207fa54881e71ceac2f6039cec4eaecbdebd41cc6ffac59798d13f385016e91c5ebb91836001600160601b0360a01b600154161760015580600055604051908152a2005b60405162461bcd60e51b815260206004820152601b60248201527f526f79616c74792070657263656e7461676520746f6f206869676800000000006044820152606490fd5b34610317576000366003190112610317576106d76106c36122cb565b34610317576020366003190112610317576020611231600435612e09565b6040516001600160a01b039091168152f35b34610317577f40ebea9c3c7603a5d233a0bec01e483338737b6bed01bed2ac09ccbaa3d4b7ac6112723661223c565b90949250905061128c6001600160a01b036102b3856132ce565b6112a86001600160a01b036112a085612e09565b163314612897565b6112b133612eda565b936112c3604051928392339784612910565b0390a3005b34610317577f5c0564b4237730adb947143019acb5addfdbf1be3ad1edf72e24a8f9d02fd2c16112f73661223c565b9094925090506113116001600160a01b036102b3856132ce565b6001600160a01b0361132284612e09565b1633148015611335575b6112a890612897565b506004546001600160a01b0316331461132c565b34610317576020366003190112610317576004356001600160401b038111610317576113799036906004016121b4565b611381612de0565b80516001600160401b038111611445576113a7816113a0600254612291565b600261274c565b602091601f82116001146113e4579181926000926113d9575b5050600019600383901b1c191660019190911b17600255005b0151905082806113c0565b601f198216926002600052806000209160005b85811061142d57508360019510611414575b505050811b01600255005b015160001960f88460031b161c19169055828080611409565b919260206001819286850151815501940192016113f7565b634e487b7160e01b600052604160045260246000fd5b34610317576040366003190112610317576004356024356001600160401b038111610317576000805160206135ae833981519152916114dc6114a360209336906004016121b4565b6114ab612de0565b826000527f0542a41881ee128a365a727b282c86fa859579490b9bb45aab8503648c8e790084526040600020612791565b8282604051838152a1610ade612de0565b3461031757602036600319011261031757005b3461031757604036600319011261031757611519612058565b61152161206e565b60008051602061358e833981519152549060ff8260401c1615916001600160401b03811680159081611968575b600114908161195e575b159081611955575b506119445767ffffffffffffffff19811660011760008051602061358e8339815191525582611917575b50604092835161159a8582612178565b600981526810dc9e5c1d1bd85c9d60ba1b60208201528451906115bd8683612178565b600482526310d3919560e21b60208301526115d66133a6565b6115de6133a6565b8051906001600160401b0382116114455781906116218261160d60008051602061352e83398151915254612291565b60008051602061352e83398151915261274c565b602090601f83116001146118955760009261188a575b50508160011b916000199060031b1c19161760008051602061352e833981519152555b8051906001600160401b03821161144557819061169d826116896000805160206135ce83398151915254612291565b6000805160206135ce83398151915261274c565b602090601f8311600114611808576000926117fd575b50508160011b916000199060031b1c1916176000805160206135ce833981519152555b6116de6133a6565b6116e66133a6565b6116ee6133a6565b6116f781612d58565b60018060a01b0316806001600160601b0360a01b600154161760015561171e600254612291565b601f81116117be575b50600060025560fa6000556001600160601b0360a01b600454161760045560018060a01b03166001600160601b0360a01b600554161760055561176657005b60207fc7f505b2f371ae2175ee4913f4499e1f2633a7b5936321eed1cdaeb6115181d29168ff00000000000000001960008051602061358e833981519152541660008051602061358e833981519152555160018152a1005b60026000526117f790601f0160051c7f405787fa12a823e0f2b7631cc41b3ba8828b3321ca811111fa75cd3aa3bb5ace90810190612735565b84611727565b0151905086806116b3565b6000805160206135ce83398151915260009081528281209350601f198516905b8181106118725750908460019594939210611859575b505050811b016000805160206135ce833981519152556116d6565b015160001960f88460031b161c1916905586808061183e565b92936020600181928786015181550195019301611828565b015190508780611637565b60008051602061352e83398151915260009081528281209350601f198516905b8181106118ff57509084600195949392106118e6575b505050811b0160008051602061352e8339815191525561165a565b015160001960f88460031b161c191690558780806118cb565b929360206001819287860151815501950193016118b5565b68ffffffffffffffffff1916680100000000000000011760008051602061358e833981519152558361158a565b63f92ee8a960e01b60005260046000fd5b90501585611560565b303b159150611558565b84915061154e565b34610317576020366003190112610317576004356000526008602052602060ff604060002054166040519015158152f35b34610317576020366003190112610317576103666004356125c0565b34610317576103666119ce3661213e565b90604051926119de602085612178565b60008452612bda565b3461031757600036600319011261031757611a00612de0565b478015611a5857600080808093335af1611a18612590565b5015611a2057005b60405162461bcd60e51b815260206004820152601060248201526f2a3930b739b332b9103330b4b632b21760811b6044820152606490fd5b60405162461bcd60e51b815260206004820152602160248201527f4e6f2066756e647320617661696c61626c6520666f72207769746864726177616044820152601b60fa1b6064820152608490fd5b3461031757602036600319011261031757611ac0612de0565b6000805160206135ae83398151915260206040516004358152a1005b3461031757611aea36612226565b60005480820292508115918304141715611b1f57600154604080516001600160a01b0390921682526127109092046020820152f35b634e487b7160e01b600052601160045260246000fd5b34610317576040366003190112610317576004356001600160401b03811161031757611b659036906004016121f9565b50506024356001600160401b038111610317576103669036906004016121f9565b34610317576040366003190112610317576004356024356001600160401b03811161031757611bb99036906004016121b4565b6001600160a01b03611bca83612e09565b163303611cda57611c1790611bde33613322565b604051602081019133835285604083015260608201524660808201523060a082015260a08152611c0f60c082612178565b519020613364565b6005546001600160a01b03908116911603611c95576020816000805160206135ae83398151915292600052600782526000604081205580600052600882526040600020600160ff19825416179055604051906000817fdafe56f3e547ebb1818fc8353ba53591db2528d41cbb7a35af2d9469f44905338280a38152a1005b60405162461bcd60e51b815260206004820152601860248201527f4e6f7420617574686f72697a656420746f20756e7061697200000000000000006044820152606490fd5b60405162461bcd60e51b815260206004820152600c60248201526b155b985d5d1a1bdc9a5e995960a21b6044820152606490fd5b3461031757610366611d1f3661213e565b916123f8565b34610317576000366003190112610317576020600954604051908152f35b34610317576020366003190112610317576001600160a01b03611d64612058565b1660005260036020526020604060002054604051908152f35b3461031757604036600319011261031757611d96612058565b602435611da281612e09565b33151580611e5c575b80611e38575b611e235781906001600160a01b0384811691167f8c5be1e5ebec7d5bd14f71427d1e84f3dd0314c0f7b2291e5b200ac8c7c3b925600080a4600090815260008051602061356e8339815191526020526040902080546001600160a01b0319166001600160a01b03909216919091179055005b63a9fbf51f60e01b6000523360045260246000fd5b50611e4281612105565b336000908152602091909152604090205460ff1615611db1565b506001600160a01b038116331415611dab565b34610317576020366003190112610317576020611231600435611e9181612e09565b50600090815260008051602061356e83398151915260205260409020546001600160a01b031690565b3461031757600036600319011261031757604051600060008051602061352e83398151915254611ee981612291565b8084529060018116908115610da05750600114611f10576106d7836106c381850382612178565b60008051602061352e83398151915260009081527f37c58c799b6609234b945e882912ee9ad34948a1dfaa20a97485e1a7752bbf81939250905b808210611f62575090915081016020016106c3610d24565b919260018160209254838588010152019101909291611f4a565b346103175760203660031901126103175760043563ffffffff60e01b811680910361031757602090632483248360e11b81149081159081611fc4575b50506040519015158152f35b90611fd2575b508280611fb8565b6380ac58cd60e01b811491508115612004575b8115611ff3575b5082611fca565b6301ffc9a760e01b14905082611fec565b635b5e139f60e01b81149150611fe5565b346103175760203660031901126103175761202e612058565b612036612de0565b600580546001600160a01b0319166001600160a01b0392909216919091179055005b600435906001600160a01b038216820361031757565b602435906001600160a01b038216820361031757565b60005b8381106120975750506000910152565b8181015183820152602001612087565b906020916120c081518092818552858086019101612084565b601f01601f1916010190565b6001600160a01b031660009081527f80bb2b638cc20bc4d0a60d66940f3ab4a00c1d7b313497ca82fb0b4ab00793036020526040902090565b6001600160a01b031660009081527f80bb2b638cc20bc4d0a60d66940f3ab4a00c1d7b313497ca82fb0b4ab00793056020526040902090565b6060906003190112610317576004356001600160a01b038116810361031757906024356001600160a01b0381168103610317579060443590565b90601f801991011681019081106001600160401b0382111761144557604052565b6001600160401b03811161144557601f01601f191660200190565b81601f82011215610317576020813591016121ce82612199565b926121dc6040519485612178565b828452828201116103175781600092602092838601378301015290565b9181601f84011215610317578235916001600160401b038311610317576020838186019501011161031757565b6040906003190112610317576004359060243590565b90606060031983011261031757600435916024356001600160401b038111610317578161226b916004016121f9565b92909291604435906001600160401b0382116103175761228d916004016121f9565b9091565b90600182811c921680156122c1575b60208310146122ab57565b634e487b7160e01b600052602260045260246000fd5b91607f16916122a0565b60405190600082600254916122df83612291565b80835292600181169081156123655750600114612305575b61230392500383612178565b565b506002600090815290917f405787fa12a823e0f2b7631cc41b3ba8828b3321ca811111fa75cd3aa3bb5ace5b818310612349575050906020612303928201016122f7565b6020919350806001915483858901015201910190918492612331565b6020925061230394915060ff191682840152151560051b8201016122f7565b6001600160401b0381116114455760051b60200190565b9080601f830112156103175781356123b281612384565b926123c06040519485612178565b81845260208085019260051b82010192831161031757602001905b8282106123e85750505090565b81358152602091820191016123db565b909291906001600160a01b03841680156108fe57600094612418846132ce565b95331515806124e4575b509184917fddf252ad1be2c89b69c2b068fc378daa952ba7f163c4a11628f55a4df523b3ef61246397989460018060a01b038616988993846124c5576120cc565b8054600101905584815260008051602061354e8339815191526020526040812080546001600160a01b0319168517905580a4506001600160a01b03168083036124ab57505050565b6364283d7b60e01b60005260045260245260445260646000fd5b6124ce876132f6565b6124d7886120cc565b80546000190190556120cc565b8061252d575b156124f55738612422565b84906001600160a01b03881661251757602491637e27328960e01b8252600452fd5b60449163177e802f60e01b825233600452602452fd5b506001600160a01b03871633148015612573575b806124ea5750600085815260008051602061356e83398151915260205260409020546001600160a01b031633146124ea565b5061257d87612105565b338252602052604081205460ff16612541565b3d156125bb573d906125a182612199565b916125af6040519384612178565b82523d6000602084013e565b606090565b6125c981612e09565b6001600160a01b03163314801561270a575b156126c65760006125eb826132ce565b6001600160a01b038116801592849184156126a7575b82825260008051602061354e8339815191526020526040822080546001600160a01b03191690557fddf252ad1be2c89b69c2b068fc378daa952ba7f163c4a11628f55a4df523b3ef8280a4506126935760207fd83c63197e8e676d80ab0122beba9a9d20f3828839e9a1d6fe81d242e9cd7e6e91604051908152a1336000526003602052604060002060018154019055565b637e27328960e01b60005260045260246000fd5b6126b0836132f6565b6126b9846120cc565b8054600019019055612601565b606460405162461bcd60e51b815260206004820152602060248201527f43616c6c6572206973206e6f74206f776e6572206e6f7220617070726f7665646044820152fd5b5061271c61271782612e09565b612105565b336000908152602091909152604090205460ff166125db565b818110612740575050565b60008155600101612735565b9190601f811161275b57505050565b612303926000526020600020906020601f840160051c83019310612787575b601f0160051c0190612735565b909150819061277a565b91909182516001600160401b038111611445576127b8816127b28454612291565b8461274c565b6020601f82116001146127f257819293946000926127e7575b50508160011b916000199060031b1c1916179055565b0151905038806127d1565b601f1982169083600052806000209160005b81811061283c57509583600195969710612823575b505050811b019055565b015160001960f88460031b161c19169055388080612819565b9192602060018192868b015181550194019201612804565b1561285b57565b60405162461bcd60e51b8152602060048201526014602482015273151bdad95b88191bd95cc81b9bdd08195e1a5cdd60621b6044820152606490fd5b1561289e57565b60405162461bcd60e51b8152602060048201526024808201527f43616c6c6572206973206e6f7420746865206f776e6572206f6620746865207460448201526337b5b2b760e11b6064820152608490fd5b908060209392818452848401376000828201840152601f01601f1916010190565b9161292761293594926040855260408501906120a7565b9260208185039101526128ef565b90565b1561293f57565b60405162461bcd60e51b815260206004820152602760248201527f4552433732313a2055524920717565727920666f72206e6f6e6578697374656e6044820152663a103a37b5b2b760c91b6064820152608490fd5b908154916129a183612384565b926129af6040519485612178565b80845260208401916000526020600020916000905b8282106129d15750505050565b604051600085546129e181612291565b8084529060018116908115612a535750600114612a1b575b5060019282612a0d85946020940382612178565b8152019401910190926129c4565b6000878152602081209092505b818310612a3d575050810160200160016129f9565b6001816020925483868801015201920191612a28565b60ff191660208581019190915291151560051b84019091019150600190506129f9565b15612a7d57565b60405162461bcd60e51b81526020600482015260156024820152742a37b5b2b71030b63932b0b23c9036b4b73a32b21760591b6044820152606490fd5b60606020916040810193815260408382015284518094520192019060005b818110612ae55750505090565b8251845260209384019390920191600101612ad8565b9490959197969293973360005260036020528860406000205410612b95577fc915eb4af850630b4ff537c4c121aa04c1fdb7b6dc09b76d94ca0a629991607497612b6695610836928691869186918e91612b5f6001600160a01b036105f68f6132ce565b8c336130ff565b612b7560405192839283612aba565b0390a133600052600360205260406000208054918203918211611b1f5755565b60405162461bcd60e51b815260206004820152601b60248201527f4e6f7420656e6f756768206275726e7320617661696c61626c652e00000000006044820152606490fd5b9291612be78183866123f8565b813b612bf4575b50505050565b604051630a85bd0160e11b81523360048201526001600160a01b0394851660248201526044810191909152608060648201529216919060209082908190612c3f9060848301906120a7565b03816000865af18091600091612cb6575b5090612c815750612c5f612590565b80519081612c7c5782633250574960e11b60005260045260246000fd5b602001fd5b6001600160e01b03191663757a42ff60e11b01612ca2575038808080612bee565b633250574960e11b60005260045260246000fd5b6020813d602011612cf8575b81612ccf60209383612178565b81010312612cf45751906001600160e01b031982168203612cf1575038612c50565b80fd5b5080fd5b3d9150612cc2565b8051821015612d145760209160051b010190565b634e487b7160e01b600052603260045260246000fd5b80519060005b828110612d3c57505050565b80612d52612d4c60019385612d00565b516125c0565b01612d30565b6001600160a01b03168015612dca577f9016d09d72d40fdae2fd8ceac6b6234c7706214fd39c1cd1e609a0528c19930080546001600160a01b0319811683179091556001600160a01b03167f8be0079c531659141344cd1fd0a4f28419497f9722a3daafe3b4186f6b6457e0600080a3565b631e4fbdf760e01b600052600060045260246000fd5b6004546001600160a01b03163303612df457565b63118cdaa760e01b6000523360045260246000fd5b612e12816132ce565b906001600160a01b03821615612693575090565b90612e30816132ce565b916001600160a01b03831680612ebb575b6001600160a01b0382169182612ea5575b50600083815260008051602061354e8339815191526020526040812080546001600160a01b031916841790557fddf252ad1be2c89b69c2b068fc378daa952ba7f163c4a11628f55a4df523b3ef9080a490565b612eae906120cc565b6001815401905538612e52565b612ec4836132f6565b612ecd846120cc565b8054600019019055612e41565b604051906001600160a01b031680612ef3606084612178565b602a8352602083016040368237835115612d145760309053825160011015612d14576078602184015360295b60018111612f495750612f30575090565b63e22e27eb60e01b600052600452601460245260446000fd5b90600f81166010811015612d145760008551841015612f9357506f181899199a1a9b1b9c1cb0b131b232b360811b901a8483016020015360041c908015611b1f5760001901612f1f565b634e487b7160e01b81526032600452602490fd5b60008181526008602052604081205460ff1615612fd05750600052600760205260406000205490565b90815260066020526040812054600019810191908211612fee575090565b634e487b7160e01b81526011600452602490fd5b94936130816130aa989792939561306f611c0f9661301f8a613322565b946130516040519a8b9960208b01809e60018060a01b0316905260408b015261016060608b01526101808a01906120a7565b916080890152600060a0890152601f198883030160c08901526120a7565b858103601f190160e0870152906120a7565b91610100840152610120830152466101408301523061016083015203601f198101835282612178565b6005546001600160a01b039081169116036130c157565b60405162461bcd60e51b8152602060048201526016602482015275139bdd08185d5d1a1bdc9a5e9959081d1bc81b5a5b9d60521b6044820152606490fd5b956130819061306f611c0f9693956130aa9b9a959861311d8b613322565b956131506040519b8c9a60208c019e8f9060018060a01b0316905260408c015261016060608c01526101808b01906120a7565b9260808a015260a0890152601f198883030160c08901526120a7565b906001600160a01b038216156108fe576001600160a01b039161318f9190612e26565b1661319657565b6339e3563760e11b600052600060045260246000fd5b908154680100000000000000008110156114455760018101808455811015612d145761230392600052602060002001612791565b929092806000526006602052604060002054613289576132336020936132216000805160206135ae83398151915296846000526006875260406000206131ac565b826000526006855260406000206131ac565b80600052600783528160406000205580600052600883526040600020600160ff1982541617905560405191817fdafe56f3e547ebb1818fc8353ba53591db2528d41cbb7a35af2d9469f4490533600080a38152a1565b60405162461bcd60e51b815260206004820152601960248201527f55524920616c72656164792073657420666f7220746f6b656e000000000000006044820152606490fd5b600090815260008051602061354e83398151915260205260409020546001600160a01b031690565b60005260008051602061356e83398151915260205260406000206001600160601b0360a01b8154169055565b6001600160a01b031660009081527f5ab42ced628888259c08ac98db1eb0cf702fc1501344311d8b100cd1bfe4bb006020526040902080546001810190915590565b6129359161339d917f19457468657265756d205369676e6564204d6573736167653a0a333200000000600052601c52603c6000206133d4565b90929192613410565b60ff60008051602061358e8339815191525460401c16156133c357565b631afcd79f60e31b60005260046000fd5b8151919060418303613405576133fe92506020820151906060604084015193015160001a90613498565b9192909190565b505060009160029190565b9190916004811015613482578061342657509050565b6000600182036134415763f645eedf60e01b60005260046000fd5b506002810361345f578263fce698f760e01b60005260045260246000fd5b909160036000921461346f575050565b6335e2f38360e21b825260045260249150fd5b634e487b7160e01b600052602160045260246000fd5b91907f7fffffffffffffffffffffffffffffff5d576e7357a4501ddfe92f46681b20a08411613521579160209360809260ff60009560405194855216868401526040830152606082015282805260015afa15613515576000516001600160a01b038116156135095790600090600090565b50600090600190600090565b6040513d6000823e3d90fd5b5050506000916003919056fe80bb2b638cc20bc4d0a60d66940f3ab4a00c1d7b313497ca82fb0b4ab007930080bb2b638cc20bc4d0a60d66940f3ab4a00c1d7b313497ca82fb0b4ab007930280bb2b638cc20bc4d0a60d66940f3ab4a00c1d7b313497ca82fb0b4ab0079304f0c57e16840df040f15088dc2f81fe391c3923bec73e23a9662efc9c229c6a00f8e1a15aba9398e019f0b49df1a4fde98ee17ae345cb5f6b5e2c27f5033e8ce780bb2b638cc20bc4d0a60d66940f3ab4a00c1d7b313497ca82fb0b4ab0079301a2646970667358221220d9d47b990966d53ebe33da5775d5d72af8d0b89b40cba0728a9a269443ef58ac64736f6c634300081a0033","linkReferences":{}},"methodIdentifiers":{"addCollectionStory(string,string)":"29471dc2","addCreatorStory(uint256,string,string)":"56000f77","addStory(uint256,string,string)":"5b23e3ce","approve(address,uint256)":"095ea7b3","balanceOf(address)":"70a08231","baseURI()":"6c0360eb","batchBurn(uint256[])":"dc8e92ea","burn(uint256)":"42966c68","burnAndMint(uint256[],uint256,string,uint256,uint256,string,string,uint256,bytes)":"d2b161b2","burnCount(address)":"15889e43","claimable(uint256,uint256,string,string,uint256,bytes)":"dcf5386b","currentAuthoritySigner()":"aa20ee7b","getApproved(uint256)":"081812fc","hasPinnedTokenURI(uint256)":"455086e1","initialize(address,address)":"485cc955","isApprovedForAll(address,address)":"e985e9c5","mint(uint256,string,uint256,string,string,uint256,bytes)":"b55dea4c","mintWithBurns(uint256,uint256[],string,uint256,uint256,string,string,uint256,bytes)":"9cd8e65e","mintWithTrade(uint256,uint256[],string,uint256,string,string,uint256,bytes)":"c787ce51","name()":"06fdde03","nonces(address)":"7ecebe00","owner()":"8da5cb5b","ownerOf(uint256)":"6352211e","pinRedeemableTrueTokenUri(uint256,bytes)":"2714cfb4","pinTokenURI(uint256,uint256)":"7de19c5f","renounceOwnership()":"715018a6","royaltyInfo(uint256,uint256)":"2a55205a","royaltyPercentage()":"8a71bb2d","royaltyReceiver()":"9fbc8713","safeTransferFrom(address,address,uint256)":"42842e0e","safeTransferFrom(address,address,uint256,bytes)":"b88d4fde","setApprovalForAll(address,bool)":"a22cb465","setBaseURI(string)":"55f804b3","setTotalSupply(uint256)":"f7ea7a3d","supportsInterface(bytes4)":"01ffc9a7","symbol()":"95d89b41","toggleStoryVisibility(uint256,string,bool)":"ff5e7a19","tokenURI(uint256)":"c87b56dd","tokenURIs(uint256)":"6c8b703f","totalSupply()":"18160ddd","transferFrom(address,address,uint256)":"23b872dd","transferOwnership(address)":"f2fde38b","triggerMetadataUpdate(uint256)":"2f388560","unpinTokenURI(uint256)":"52dbd6da","updateAuthoritySigner(address)":"01946adb","updateMetadata(uint256,string)":"53c8388e","updateOwner(address)":"880cdc31","updateRoyalties(address,uint256)":"6c2f5acd","withdraw()":"3ccfd60b"},"id":0}